:020000020000FC
:10000000E5E2F0E00994189518951895189518955B
:100010001895189518951895189518951895189578
:100020001895189518951895189518951895189568
:100030001895189518951895189518951895189558
:1000400018951895189518951895E0E8F0E090E047
:100050009193E1E8F0E09CE09193E9E8F0E092E030
:100060009193E8E8F0E090E79193F894A89598E1EF
:10007000E0E6F0E0908399E290837894EEE5F0E09A
:1000800098E09193EDE5F0E09FEF9193A0E0B9E067
:1000900000E080E098E00E930197E9F7E4E2F0E0F9
:1000A00097E09193E5E2F0E090E09193E7E2F0E0F1
:1000B00090E09193E8E2F0E090E09193EAE2F0E0E2
:1000C00090EC9193EBE2F0E098E09193E6E3F0E0BE
:1000D000908191FFFDCFE6E3F0E090819260908304
:1000E000A895E0E0F1E0908191609083E9E2F0E092
:1000F000908193FD05C0E0E0F1E090819E7F9083C8
:10010000E0E0F1E0908190FF05C0E0E0F1E0908157
:1001100092609083E0E0F1E0908191609083E0E074
:10012000F1E0908191FD05C0E0E0F1E090819E7FDB
:100130009083E0E0F1E0908190FF13C0A1E0B1E096
:100140004D9104E6401754F4E0E0F1E090819E7F89
:100150009083E1E0F1E0908193959193E5EBF0E0FD
:100160000994E1E0F1E090E09193E0E0F1E090812A
:1001700090FB92F99083E0E0F1E0908192FF05C05E
:10018000E0E0F1E0908198609083E0E0F1E0908120
:1001900090FB92F99083E0E0F1E0908192FF05C03E
:1001A000E0E0F1E090819D7F9083E0E0F1E09081DC
:1001B00091609083E0E0F1E0908193FD05C0E0E084
:1001C000F1E090819E7F9083E9E2F0E0908193FDE1
:1001D00005C0E0E0F1E090819E7F9083E0E0F1E0F7
:1001E000908190FB94F99083E0E0F1E0908194FF9E
:1001F00005C0E0E0F1E0908190629083E0E0F1E002
:10020000908190FB94F99083E0E0F1E0908194FF7D
:1002100005C0E0E0F1E09081977F9083E0E0F1E0BD
:10022000908191609083E0E0F1E0908195FD05C0C0
:10023000E0E0F1E090819E7F9083E0E0F1E090814A
:1002400090FF13C0A2E0B1E04D9104E6401754F4D2
:10025000E0E0F1E090819E7F9083E2E0F1E0908128
:1002600093959193E9E3F1E00994E2E0F1E090E005
:100270009193E0E0F1E0908190FB96F99083E0E0CB
:10028000F1E0908196FF05C0E0E0F1E09081906898
:100290009083E0E0F1E0908190FB96F99083E0E0BC
:1002A000F1E0908196FF05C0E0E0F1E090819F7D54
:1002B0009083E0E0F1E0908191609083E0E0F1E0F4
:1002C000908197FD05C0E0E0F1E090819E7F9083F2
:1002D000E0E0F1E0908190FF13C0A3E0B1E04D9128
:1002E00004E6401754F4E0E0F1E090819E7F9083B3
:1002F000E3E0F1E0908193959193E4E8F1E00994D3
:10030000E3E0F1E090E09193E0E0F1E0908190FB98
:10031000E4E0F1E0908190F99083E4E0F1E09081F5
:1003200090FF05C0E4E0F1E0908192609083E0E00E
:10033000F1E0908190FBE4E0F1E0908190F990830E
:10034000E4E0F1E0908190FF05C0E0E0F1E0908111
:100350009F779083E0E0F1E0908191609083E4E00A
:10036000F1E0908191FD05C0E0E0F1E090819E7F99
:100370009083E9E2F0E0908193FD05C0E0E0F1E0D8
:1003800090819E7F9083E0E0F1E0908190FBE4E03B
:10039000F1E0908192F99083E4E0F1E0908192FFA6
:1003A00005C0E4E0F1E0908198609083E0E0F1E046
:1003B000908190FBE4E0F1E0908192F99083E4E099
:1003C000F1E0908192FF05C0E4E0F1E090819D7F33
:1003D0009083E0E0F1E0908191609083E4E0F1E0CF
:1003E000908193FD05C0E0E0F1E090819E7F9083D5
:1003F000E0E0F1E0908190FF13C0A5E0B1E04D9105
:1004000004E6401754F4E0E0F1E090819E7F908391
:10041000E5E0F1E0908193959193E4E1F2E00994B5
:10042000E5E0F1E090E09193E0E0F1E0908190FB75
:10043000E4E0F1E0908194F99083E4E0F1E09081D0
:1004400094FF05C0E4E0F1E0908190629083E0E0E9
:10045000F1E0908190FBE4E0F1E0908194F99083E9
:10046000E4E0F1E0908194FF05C0E4E0F1E09081E8
:10047000977F9083E0E0F1E0908191609083E4E0E9
:10048000F1E0908195FD05C0E0E0F1E090819E7F74
:100490009083E0E0F1E0908190FF13C0A6E0B1E02E
:1004A0004D9104E6401754F4E0E0F1E090819E7F26
:1004B0009083E6E0F1E0908193959193E5E6F2E098
:1004C0000994E6E0F1E090E09193E0E0F1E09081C2
:1004D00090FBE4E0F1E0908196F99083E4E0F1E0B4
:1004E000908196FF05C0E4E0F1E0908190689083F0
:1004F000E0E0F1E0908190FBE4E0F1E0908196F99A
:100500009083E4E0F1E0908196FF05C0E4E0F1E043
:1005100090819F7D9083E0E0F1E0908191609083F5
:10052000E4E0F1E0908197FD05C0E0E0F1E090812A
:100530009E7F9083E0E0F1E0908190FF13C0A7E000
:10054000B1E04D9104E6401754F4E0E0F1E0908111
:100550009E7F9083E7E0F1E0908193959193E6EBA5
:10056000F2E00994E7E0F1E090E09193E0E0F1E05F
:10057000908190FF05C0E4E0F1E090819F77908347
:10058000E0E0F1E0908191609083E4E0F1E090811F
:1005900097FD05C0E0E0F1E090819E7F9083E0E070
:1005A000F1E0908190FBE5E2F0E0908192F9908398
:1005B000E0E0F1E0908191609083E8E0F1E09081EB
:1005C0009E7F9083E0E0F1E0908190FBE8E0F1E035
:1005D000908191F99083E0E0F1E0908191FD05C078
:1005E000E8E0F1E090819D7F9083E8E0F1E0908188
:1005F00091FF05C0E8E0F1E0908191609083E0E038
:10060000F1E0908190FBE8E0F1E0908191F9908336
:10061000E0E0F1E0908195FD05C0E8E0F1E0908137
:100620009D7F9083E8E0F1E0908191FF05C0E8E0D4
:10063000F1E0908191609083E0E0F1E0908190FBA7
:10064000E8E0F1E0908191F99083E4E0F1E09081BD
:1006500093FD05C0E8E0F1E090819D7F9083E8E0A4
:10066000F1E0908191FF05C0E8E0F1E090819160B8
:100670009083E8E0F1E0908190FBE0E0F1E0908190
:1006800090F99083E0E0F1E0908190FBE5E2F0E00A
:10069000908191F99083E0E0F1E090819160908306
:1006A000E8E0F1E090819B7F9083E0E0F1E09081D1
:1006B00090FBE8E0F1E0908193F99083E0E0F1E0D5
:1006C000908193FD05C0E8E0F1E09081977F9083F1
:1006D000E8E0F1E0908193FF05C0E8E0F1E090816F
:1006E00094609083E0E0F1E0908190FBE8E0F1E03D
:1006F000908193F99083E0E0F1E0908197FD05C04F
:10070000E8E0F1E09081977F9083E8E0F1E090816C
:1007100093FF05C0E8E0F1E0908194609083E0E011
:10072000F1E0908190FBE8E0F1E0908193F9908313
:10073000E4E0F1E0908191FD05C0E8E0F1E0908116
:10074000977F9083E8E0F1E0908193FF05C0E8E0B7
:10075000F1E0908194609083E8E0F1E0908192FB79
:10076000E0E0F1E0908190F99083E0E0F1E09081A9
:1007700090FBE5E2F0E0908190F99083E0E0F1E019
:10078000908191609083E0E0F1E0908195FD05C05B
:10079000E0E0F1E090819E7F9083E0E0F1E09081E5
:1007A00090FBEBE2F0E0908197F99083E0E0F1E0DC
:1007B000908191609083E4E0F1E0908195FD05C027
:1007C000E0E0F1E090819E7F9083E0E0F1E09081B5
:1007D00090FBEBE2F0E0908196F99083E6E6F0E0A2
:0407E0000994FFCFAA
:00000001FF
